{
  "contractName": "MiningToken",
  "abi": [
    {
      "constant": true,
      "inputs": [],
      "name": "name",
      "outputs": [
        {
          "name": "",
          "type": "string"
        }
      ],
      "payable": false,
      "stateMutability": "view",
      "type": "function"
    },
    {
      "constant": true,
      "inputs": [
        {
          "name": "",
          "type": "uint256"
        }
      ],
      "name": "payouts",
      "outputs": [
        {
          "name": "blockNumber",
          "type": "uint256"
        },
        {
          "name": "ethAmount",
          "type": "uint256"
        },
        {
          "name": "totalThs",
          "type": "uint256"
        }
      ],
      "payable": false,
      "stateMutability": "view",
      "type": "function"
    },
    {
      "constant": true,
      "inputs": [],
      "name": "decimals",
      "outputs": [
        {
          "name": "",
          "type": "uint256"
        }
      ],
      "payable": false,
      "stateMutability": "view",
      "type": "function"
    },
    {
      "constant": false,
      "inputs": [],
      "name": "renounceOwnership",
      "outputs": [],
      "payable": false,
      "stateMutability": "nonpayable",
      "type": "function"
    },
    {
      "constant": true,
      "inputs": [],
      "name": "owner",
      "outputs": [
        {
          "name": "",
          "type": "address"
        }
      ],
      "payable": false,
      "stateMutability": "view",
      "type": "function"
    },
    {
      "constant": true,
      "inputs": [],
      "name": "symbol",
      "outputs": [
        {
          "name": "",
          "type": "string"
        }
      ],
      "payable": false,
      "stateMutability": "view",
      "type": "function"
    },
    {
      "constant": true,
      "inputs": [
        {
          "name": "",
          "type": "uint256"
        }
      ],
      "name": "mContracts",
      "outputs": [
        {
          "name": "startBlock",
          "type": "uint256"
        },
        {
          "name": "expieringBlock",
          "type": "uint256"
        },
        {
          "name": "ths",
          "type": "uint256"
        },
        {
          "name": "lastPayout",
          "type": "uint256"
        }
      ],
      "payable": false,
      "stateMutability": "view",
      "type": "function"
    },
    {
      "constant": true,
      "inputs": [
        {
          "name": "",
          "type": "uint256"
        }
      ],
      "name": "mContractOwner",
      "outputs": [
        {
          "name": "",
          "type": "address"
        }
      ],
      "payable": false,
      "stateMutability": "view",
      "type": "function"
    },
    {
      "constant": false,
      "inputs": [
        {
          "name": "_newOwner",
          "type": "address"
        }
      ],
      "name": "transferOwnership",
      "outputs": [],
      "payable": false,
      "stateMutability": "nonpayable",
      "type": "function"
    },
    {
      "anonymous": false,
      "inputs": [
        {
          "indexed": true,
          "name": "previousOwner",
          "type": "address"
        }
      ],
      "name": "OwnershipRenounced",
      "type": "event"
    },
    {
      "anonymous": false,
      "inputs": [
        {
          "indexed": true,
          "name": "previousOwner",
          "type": "address"
        },
        {
          "indexed": true,
          "name": "newOwner",
          "type": "address"
        }
      ],
      "name": "OwnershipTransferred",
      "type": "event"
    },
    {
      "constant": true,
      "inputs": [
        {
          "name": "_owner",
          "type": "address"
        }
      ],
      "name": "getMContractsByOwner",
      "outputs": [
        {
          "name": "",
          "type": "uint256[]"
        }
      ],
      "payable": false,
      "stateMutability": "view",
      "type": "function"
    },
    {
      "constant": false,
      "inputs": [],
      "name": "distributeMiningProfits",
      "outputs": [],
      "payable": true,
      "stateMutability": "payable",
      "type": "function"
    },
    {
      "constant": false,
      "inputs": [
        {
          "name": "contractId",
          "type": "uint256"
        },
        {
          "name": "payoutId",
          "type": "uint256"
        }
      ],
      "name": "withdraw",
      "outputs": [],
      "payable": false,
      "stateMutability": "nonpayable",
      "type": "function"
    },
    {
      "constant": true,
      "inputs": [
        {
          "name": "blockNumber",
          "type": "uint256"
        },
        {
          "name": "contractId",
          "type": "uint256"
        }
      ],
      "name": "contractIsActive",
      "outputs": [
        {
          "name": "",
          "type": "bool"
        }
      ],
      "payable": false,
      "stateMutability": "view",
      "type": "function"
    },
    {
      "constant": false,
      "inputs": [
        {
          "name": "_to",
          "type": "address"
        },
        {
          "name": "contractId",
          "type": "uint256"
        }
      ],
      "name": "transfare",
      "outputs": [
        {
          "name": "",
          "type": "bool"
        }
      ],
      "payable": false,
      "stateMutability": "nonpayable",
      "type": "function"
    },
    {
      "constant": false,
      "inputs": [
        {
          "name": "_to",
          "type": "address"
        },
        {
          "name": "amount",
          "type": "uint256"
        }
      ],
      "name": "mintTokens",
      "outputs": [],
      "payable": false,
      "stateMutability": "nonpayable",
      "type": "function"
    }
  ],
  "bytecode": "0x60806040526040805190810160405280600e81526020017f5468734d696e696e67546f6b656e0000000000000000000000000000000000008152506001908051906020019061004f9291906100eb565b506040805190810160405280600381526020017f544d5400000000000000000000000000000000000000000000000000000000008152506002908051906020019061009b9291906100eb565b5060006003556000600455336000806101000a81548173ffffffffffffffffffffffffffffffffffffffff021916908373ffffffffffffffffffffffffffffffffffffffff160217905550610190565b828054600181600116156101000203166002900490600052602060002090601f016020900481019282601f1061012c57805160ff191683800117855561015a565b8280016001018555821561015a579182015b8281111561015957825182559160200191906001019061013e565b5b509050610167919061016b565b5090565b61018d91905b80821115610189576000816000905550600101610171565b5090565b90565b610f268061019f6000396000f3006080604052600436106100db576000357c0100000000000000000000000000000000000000000000000000000000900463ffffffff16806306fdde03146100e057806329652e8614610170578063313ce567146101bf578063441a3e70146101ea5780635f3a4f3014610221578063693886f914610286578063715018a6146102905780637747653f146102a75780638da5cb5b146102f657806395d89b411461034d578063a5244e64146103dd578063ada14de014610433578063efcbad04146104a0578063f0dda65c14610538578063f2fde38b14610585575b600080fd5b3480156100ec57600080fd5b506100f56105c8565b6040518080602001828103825283818151815260200191508051906020019080838360005b8381101561013557808201518184015260208101905061011a565b50505050905090810190601f1680156101625780820380516001836020036101000a031916815260200191505b509250505060405180910390f35b34801561017c57600080fd5b5061019b60048036038101908080359060200190929190505050610666565b60405180848152602001838152602001828152602001935050505060405180910390f35b3480156101cb57600080fd5b506101d461069f565b6040518082815260200191505060405180910390f35b3480156101f657600080fd5b5061021f60048036038101908080359060200190929190803590602001909291905050506106a5565b005b34801561022d57600080fd5b5061026c600480360381019080803573ffffffffffffffffffffffffffffffffffffffff1690602001909291908035906020019092919050505061089b565b604051808215151515815260200191505060405180910390f35b61028e6108a7565b005b34801561029c57600080fd5b506102a5610915565b005b3480156102b357600080fd5b506102dc6004803603810190808035906020019092919080359060200190929190505050610a17565b604051808215151515815260200191505060405180910390f35b34801561030257600080fd5b5061030b610a6f565b604051808273ffffffffffffffffffffffffffffffffffffffff1673ffffffffffffffffffffffffffffffffffffffff16815260200191505060405180910390f35b34801561035957600080fd5b50610362610a94565b6040518080602001828103825283818151815260200191508051906020019080838360005b838110156103a2578082015181840152602081019050610387565b50505050905090810190601f1680156103cf5780820380516001836020036101000a031916815260200191505b509250505060405180910390f35b3480156103e957600080fd5b5061040860048036038101908080359060200190929190505050610b32565b6040518085815260200184815260200183815260200182815260200194505050505060405180910390f35b34801561043f57600080fd5b5061045e60048036038101908080359060200190929190505050610b71565b604051808273ffffffffffffffffffffffffffffffffffffffff1673ffffffffffffffffffffffffffffffffffffffff16815260200191505060405180910390f35b3480156104ac57600080fd5b506104e1600480360381019080803573ffffffffffffffffffffffffffffffffffffffff169060200190929190505050610ba4565b6040518080602001828103825283818151815260200191508051906020019060200280838360005b83811015610524578082015181840152602081019050610509565b505050509050019250505060405180910390f35b34801561054457600080fd5b50610583600480360381019080803573ffffffffffffffffffffffffffffffffffffffff16906020019092919080359060200190929190505050610cd6565b005b34801561059157600080fd5b506105c6600480360381019080803573ffffffffffffffffffffffffffffffffffffffff169060200190929190505050610d35565b005b60018054600181600116156101000203166002900480601f01602080910402602001604051908101604052809291908181526020018280546001816001161561010002031660029004801561065e5780601f106106335761010080835404028352916020019161065e565b820191906000526020600020905b81548152906001019060200180831161064157829003601f168201915b505050505081565b60068181548110151561067557fe5b90600052602060002090600302016000915090508060000154908060010154908060020154905083565b60035481565b6106ad610eaf565b6106b5610ed1565b60006006848154811015156106c657fe5b9060005260206000209060030201606060405190810160405290816000820154815260200160018201548152602001600282015481525050925060058581548110151561070f57fe5b90600052602060002090600402016080604051908101604052908160008201548152602001600182015481526020016002820154815260200160038201548152505091506007600086815260200190815260200160002060009054906101000a900473ffffffffffffffffffffffffffffffffffffffff1673ffffffffffffffffffffffffffffffffffffffff163373ffffffffffffffffffffffffffffffffffffffff161415156107c057600080fd5b6107ce836000015186610a17565b15156107d957600080fd5b6107ed600185610d9c90919063ffffffff16565b82606001511415156107fe57600080fd5b8260400151826040015181151561081157fe5b0483602001510290506007600086815260200190815260200160002060009054906101000a900473ffffffffffffffffffffffffffffffffffffffff1673ffffffffffffffffffffffffffffffffffffffff166108fc829081150290604051600060405180830381858888f19350505050158015610893573d6000803e3d6000fd5b505050505050565b60006001905092915050565b600660606040519081016040528043815260200134815260200160045481525090806001815401808255809150509060018203906000526020600020906003020160009091929091909150600082015181600001556020820151816001015560408201518160020155505050565b6000809054906101000a900473ffffffffffffffffffffffffffffffffffffffff1673ffffffffffffffffffffffffffffffffffffffff163373ffffffffffffffffffffffffffffffffffffffff1614151561097057600080fd5b6000809054906101000a900473ffffffffffffffffffffffffffffffffffffffff1673ffffffffffffffffffffffffffffffffffffffff167ff8df31144d9c2f0f6b59d69b8b98abd5459d07f2742c4df920b25aae33c6482060405160405180910390a260008060006101000a81548173ffffffffffffffffffffffffffffffffffffffff021916908373ffffffffffffffffffffffffffffffffffffffff160217905550565b600082600583815481101515610a2957fe5b906000526020600020906004020160000154108015610a67575082600583815481101515610a5357fe5b906000526020600020906004020160010154115b905092915050565b6000809054906101000a900473ffffffffffffffffffffffffffffffffffffffff1681565b60028054600181600116156101000203166002900480601f016020809104026020016040519081016040528092919081815260200182805460018160011615610100020316600290048015610b2a5780601f10610aff57610100808354040283529160200191610b2a565b820191906000526020600020905b815481529060010190602001808311610b0d57829003601f168201915b505050505081565b600581815481101515610b4157fe5b90600052602060002090600402016000915090508060000154908060010154908060020154908060030154905084565b60076020528060005260406000206000915054906101000a900473ffffffffffffffffffffffffffffffffffffffff1681565b606080600080600860008673ffffffffffffffffffffffffffffffffffffffff1673ffffffffffffffffffffffffffffffffffffffff16815260200190815260200160002054604051908082528060200260200182016040528015610c185781602001602082028038833980820191505090505b50925060009150600090505b600580549050811015610ccb578473ffffffffffffffffffffffffffffffffffffffff166007600083815260200190815260200160002060009054906101000a900473ffffffffffffffffffffffffffffffffffffffff1673ffffffffffffffffffffffffffffffffffffffff161415610cbe57808383815181101515610ca757fe5b906020019060200201818152505081806001019250505b8080600101915050610c24565b829350505050919050565b6000809054906101000a900473ffffffffffffffffffffffffffffffffffffffff1673ffffffffffffffffffffffffffffffffffffffff163373ffffffffffffffffffffffffffffffffffffffff16141515610d3157600080fd5b5050565b6000809054906101000a900473ffffffffffffffffffffffffffffffffffffffff1673ffffffffffffffffffffffffffffffffffffffff163373ffffffffffffffffffffffffffffffffffffffff16141515610d9057600080fd5b610d9981610db5565b50565b6000828211151515610daa57fe5b818303905092915050565b600073ffffffffffffffffffffffffffffffffffffffff168173ffffffffffffffffffffffffffffffffffffffff1614151515610df157600080fd5b8073ffffffffffffffffffffffffffffffffffffffff166000809054906101000a900473ffffffffffffffffffffffffffffffffffffffff1673ffffffffffffffffffffffffffffffffffffffff167f8be0079c531659141344cd1fd0a4f28419497f9722a3daafe3b4186f6b6457e060405160405180910390a3806000806101000a81548173ffffffffffffffffffffffffffffffffffffffff021916908373ffffffffffffffffffffffffffffffffffffffff16021790555050565b6060604051908101604052806000815260200160008152602001600081525090565b6080604051908101604052806000815260200160008152602001600081526020016000815250905600a165627a7a723058201f13202767a206d603452c969663e3caff8d4c50377396572b51946aaad85d600029",
  "source": "pragma solidity ^0.4.19;\n\nimport \"../node_modules/zeppelin-solidity/contracts/math/SafeMath.sol\";\nimport \"../node_modules/zeppelin-solidity/contracts/ownership/Ownable.sol\";\n\ncontract MiningToken is Ownable {\n  using SafeMath for uint256;\n\n  string public name = \"ThsMiningToken\";\n  string public symbol = \"TMT\";\n  uint public decimals = 0;\n\n  struct MiningContract {\n    uint startBlock;\n    uint expieringBlock;\n    uint ths;\n    uint lastPayout;\n  }\n\n  struct Payout {\n    uint blockNumber;\n    uint ethAmount;\n    uint totalThs;\n  }\n\n  uint totalThs = 0;\n\n  MiningContract[] public mContracts;\n  Payout[] public payouts;\n\n  mapping (uint => address) public mContractOwner;\n  mapping (address => uint) mContractCount;\n\n  // get all active and expired contracts by this owner\n  function getMContractsByOwner(address _owner) external view returns(uint[]) {\n    uint[] memory result = new uint[](mContractCount[_owner]);\n    uint counter = 0;\n    for (uint i = 0; i < mContracts.length; i++) {\n      if (mContractOwner[i] == _owner) {\n        result[counter] = i;\n        counter++;\n      }\n    }\n    return result;\n  }\n\n  function distributeMiningProfits() public payable {\n    payouts.push(Payout(block.number, msg.value, totalThs));\n  }\n\n    // token holders withdraw profits\n  function withdraw(uint contractId, uint payoutId) public {\n    Payout memory payout = payouts[payoutId];\n    MiningContract memory mContract = mContracts[contractId];\n    require(msg.sender == mContractOwner[contractId]);\n    require(contractIsActive(payout.blockNumber, contractId));\n    require(mContract.lastPayout == payoutId.sub(1));\n    uint amount = payout.ethAmount * (mContract.ths / payout.totalThs);\n    mContractOwner[contractId].transfer(amount);\n  }\n\n  function contractIsActive(uint blockNumber, uint contractId) public view returns(bool) {\n    return mContracts[contractId].startBlock < blockNumber && mContracts[contractId].expieringBlock > blockNumber;\n  }\n\n  function transfare(address _to, uint contractId) public returns (bool) {\n    return true;\n  }\n\n  // mint new tokens when more hashingpower is avalible\n  function mintTokens(address _to, uint amount) public onlyOwner {\n        \n  }\n\n}\n",
  "sourcePath": "/Users/sogasg/dev/halling/dApp-starter/contracts/MiningToken.sol",
  "compiler": {
    "name": "solc",
    "version": "0.4.24+commit.e67f0147.Emscripten.clang"
  },
  "schemaVersion": "2.0.1",
  "updatedAt": "2018-07-19T10:39:07.804Z"
}